{
  "_format": "hh-sol-artifact-1",
  "contractName": "MyEpicNFT",
  "sourceName": "contracts/MyEpicNFT.sol",
  "abi": [
    {
      "inputs": [],
      "stateMutability": "nonpayable",
      "type": "constructor"
    },
    {
      "anonymous": false,
      "inputs": [
        {
          "indexed": true,
          "internalType": "address",
          "name": "owner",
          "type": "address"
        },
        {
          "indexed": true,
          "internalType": "address",
          "name": "approved",
          "type": "address"
        },
        {
          "indexed": true,
          "internalType": "uint256",
          "name": "tokenId",
          "type": "uint256"
        }
      ],
      "name": "Approval",
      "type": "event"
    },
    {
      "anonymous": false,
      "inputs": [
        {
          "indexed": true,
          "internalType": "address",
          "name": "owner",
          "type": "address"
        },
        {
          "indexed": true,
          "internalType": "address",
          "name": "operator",
          "type": "address"
        },
        {
          "indexed": false,
          "internalType": "bool",
          "name": "approved",
          "type": "bool"
        }
      ],
      "name": "ApprovalForAll",
      "type": "event"
    },
    {
      "anonymous": false,
      "inputs": [
        {
          "indexed": false,
          "internalType": "address",
          "name": "sender",
          "type": "address"
        },
        {
          "indexed": false,
          "internalType": "uint256",
          "name": "tokenId",
          "type": "uint256"
        }
      ],
      "name": "NewEpicNFTMinted",
      "type": "event"
    },
    {
      "anonymous": false,
      "inputs": [
        {
          "indexed": true,
          "internalType": "address",
          "name": "from",
          "type": "address"
        },
        {
          "indexed": true,
          "internalType": "address",
          "name": "to",
          "type": "address"
        },
        {
          "indexed": true,
          "internalType": "uint256",
          "name": "tokenId",
          "type": "uint256"
        }
      ],
      "name": "Transfer",
      "type": "event"
    },
    {
      "inputs": [
        {
          "internalType": "address",
          "name": "to",
          "type": "address"
        },
        {
          "internalType": "uint256",
          "name": "tokenId",
          "type": "uint256"
        }
      ],
      "name": "approve",
      "outputs": [],
      "stateMutability": "nonpayable",
      "type": "function"
    },
    {
      "inputs": [
        {
          "internalType": "address",
          "name": "owner",
          "type": "address"
        }
      ],
      "name": "balanceOf",
      "outputs": [
        {
          "internalType": "uint256",
          "name": "",
          "type": "uint256"
        }
      ],
      "stateMutability": "view",
      "type": "function"
    },
    {
      "inputs": [
        {
          "internalType": "uint256",
          "name": "tokenId",
          "type": "uint256"
        }
      ],
      "name": "getApproved",
      "outputs": [
        {
          "internalType": "address",
          "name": "",
          "type": "address"
        }
      ],
      "stateMutability": "view",
      "type": "function"
    },
    {
      "inputs": [],
      "name": "getCurrentMinted",
      "outputs": [
        {
          "components": [
            {
              "internalType": "uint256",
              "name": "totalMinted",
              "type": "uint256"
            },
            {
              "internalType": "uint256",
              "name": "leftToMint",
              "type": "uint256"
            }
          ],
          "internalType": "struct MyEpicNFT.CurrentMinted",
          "name": "",
          "type": "tuple"
        }
      ],
      "stateMutability": "view",
      "type": "function"
    },
    {
      "inputs": [
        {
          "internalType": "address",
          "name": "owner",
          "type": "address"
        },
        {
          "internalType": "address",
          "name": "operator",
          "type": "address"
        }
      ],
      "name": "isApprovedForAll",
      "outputs": [
        {
          "internalType": "bool",
          "name": "",
          "type": "bool"
        }
      ],
      "stateMutability": "view",
      "type": "function"
    },
    {
      "inputs": [],
      "name": "makeAnEpicNFT",
      "outputs": [],
      "stateMutability": "nonpayable",
      "type": "function"
    },
    {
      "inputs": [],
      "name": "maxTokens",
      "outputs": [
        {
          "internalType": "uint256",
          "name": "",
          "type": "uint256"
        }
      ],
      "stateMutability": "view",
      "type": "function"
    },
    {
      "inputs": [],
      "name": "name",
      "outputs": [
        {
          "internalType": "string",
          "name": "",
          "type": "string"
        }
      ],
      "stateMutability": "view",
      "type": "function"
    },
    {
      "inputs": [
        {
          "internalType": "uint256",
          "name": "tokenId",
          "type": "uint256"
        }
      ],
      "name": "ownerOf",
      "outputs": [
        {
          "internalType": "address",
          "name": "",
          "type": "address"
        }
      ],
      "stateMutability": "view",
      "type": "function"
    },
    {
      "inputs": [
        {
          "internalType": "uint256",
          "name": "tokenId",
          "type": "uint256"
        }
      ],
      "name": "pickRandomFirstWord",
      "outputs": [
        {
          "internalType": "string",
          "name": "",
          "type": "string"
        }
      ],
      "stateMutability": "view",
      "type": "function"
    },
    {
      "inputs": [
        {
          "internalType": "uint256",
          "name": "tokenId",
          "type": "uint256"
        }
      ],
      "name": "pickRandomSecondWord",
      "outputs": [
        {
          "internalType": "string",
          "name": "",
          "type": "string"
        }
      ],
      "stateMutability": "view",
      "type": "function"
    },
    {
      "inputs": [
        {
          "internalType": "uint256",
          "name": "tokenId",
          "type": "uint256"
        }
      ],
      "name": "pickRandomThirdWord",
      "outputs": [
        {
          "internalType": "string",
          "name": "",
          "type": "string"
        }
      ],
      "stateMutability": "view",
      "type": "function"
    },
    {
      "inputs": [
        {
          "internalType": "address",
          "name": "from",
          "type": "address"
        },
        {
          "internalType": "address",
          "name": "to",
          "type": "address"
        },
        {
          "internalType": "uint256",
          "name": "tokenId",
          "type": "uint256"
        }
      ],
      "name": "safeTransferFrom",
      "outputs": [],
      "stateMutability": "nonpayable",
      "type": "function"
    },
    {
      "inputs": [
        {
          "internalType": "address",
          "name": "from",
          "type": "address"
        },
        {
          "internalType": "address",
          "name": "to",
          "type": "address"
        },
        {
          "internalType": "uint256",
          "name": "tokenId",
          "type": "uint256"
        },
        {
          "internalType": "bytes",
          "name": "_data",
          "type": "bytes"
        }
      ],
      "name": "safeTransferFrom",
      "outputs": [],
      "stateMutability": "nonpayable",
      "type": "function"
    },
    {
      "inputs": [
        {
          "internalType": "address",
          "name": "operator",
          "type": "address"
        },
        {
          "internalType": "bool",
          "name": "approved",
          "type": "bool"
        }
      ],
      "name": "setApprovalForAll",
      "outputs": [],
      "stateMutability": "nonpayable",
      "type": "function"
    },
    {
      "inputs": [
        {
          "internalType": "bytes4",
          "name": "interfaceId",
          "type": "bytes4"
        }
      ],
      "name": "supportsInterface",
      "outputs": [
        {
          "internalType": "bool",
          "name": "",
          "type": "bool"
        }
      ],
      "stateMutability": "view",
      "type": "function"
    },
    {
      "inputs": [],
      "name": "symbol",
      "outputs": [
        {
          "internalType": "string",
          "name": "",
          "type": "string"
        }
      ],
      "stateMutability": "view",
      "type": "function"
    },
    {
      "inputs": [
        {
          "internalType": "uint256",
          "name": "tokenId",
          "type": "uint256"
        }
      ],
      "name": "tokenURI",
      "outputs": [
        {
          "internalType": "string",
          "name": "",
          "type": "string"
        }
      ],
      "stateMutability": "view",
      "type": "function"
    },
    {
      "inputs": [
        {
          "internalType": "address",
          "name": "from",
          "type": "address"
        },
        {
          "internalType": "address",
          "name": "to",
          "type": "address"
        },
        {
          "internalType": "uint256",
          "name": "tokenId",
          "type": "uint256"
        }
      ],
      "name": "transferFrom",
      "outputs": [],
      "stateMutability": "nonpayable",
      "type": "function"
    }
  ],
  "bytecode": "0x6080604052601e60085560405180610180016040528061014a815260200162004d6861014a9139600990805190602001906200003d92919062000fa2565b506040518061028001604052806040518060400160405280600881526020017f616465717561746500000000000000000000000000000000000000000000000081525081526020016040518060400160405280600781526020017f636f6d706c65780000000000000000000000000000000000000000000000000081525081526020016040518060400160405280600981526020017f636174686172746963000000000000000000000000000000000000000000000081525081526020016040518060400160405280600581526020017f717569636b00000000000000000000000000000000000000000000000000000081525081526020016040518060400160405280600481526020017f6e6963650000000000000000000000000000000000000000000000000000000081525081526020016040518060400160405280600a81526020017f696d706f737369626c650000000000000000000000000000000000000000000081525081526020016040518060400160405280600381526020017f686f74000000000000000000000000000000000000000000000000000000000081525081526020016040518060400160405280600481526020017f736c6f770000000000000000000000000000000000000000000000000000000081525081526020016040518060400160405280600481526020017f646565700000000000000000000000000000000000000000000000000000000081525081526020016040518060400160405280600481526020017f636f6f6c0000000000000000000000000000000000000000000000000000000081525081526020016040518060400160405280600681526020017f7374726f6e67000000000000000000000000000000000000000000000000000081525081526020016040518060400160405280600781526020017f706572666563740000000000000000000000000000000000000000000000000081525081526020016040518060400160405280600681526020017f747261676963000000000000000000000000000000000000000000000000000081525081526020016040518060400160405280600881526020017f686f6c697374696300000000000000000000000000000000000000000000000081525081526020016040518060400160405280600981526020017f707261676d61746963000000000000000000000000000000000000000000000081525081526020016040518060400160405280600d81526020017f696e737069726174696f6e616c0000000000000000000000000000000000000081525081526020016040518060400160405280600c81526020017f756e62656c69657661626c65000000000000000000000000000000000000000081525081526020016040518060400160405280600881526020017f696e766974696e6700000000000000000000000000000000000000000000000081525081526020016040518060400160405280600881526020017f636c75656c65737300000000000000000000000000000000000000000000000081525081526020016040518060400160405280600781526020017f65787472656d6500000000000000000000000000000000000000000000000000815250815250600a906014620004f692919062001033565b506040518061028001604052806040518060400160405280600481526020017f6265616e0000000000000000000000000000000000000000000000000000000081525081526020016040518060400160405280600681526020017f6c656e74696c000000000000000000000000000000000000000000000000000081525081526020016040518060400160405280600381526020017f6f6174000000000000000000000000000000000000000000000000000000000081525081526020016040518060400160405280600881526020017f62726f63636f6c6900000000000000000000000000000000000000000000000081525081526020016040518060400160405280600481526020017f6b616c650000000000000000000000000000000000000000000000000000000081525081526020016040518060400160405280600b81526020017f6361756c69666c6f77657200000000000000000000000000000000000000000081525081526020016040518060400160405280600681526020017f636865657365000000000000000000000000000000000000000000000000000081525081526020016040518060400160405280600781526020017f6275727269746f0000000000000000000000000000000000000000000000000081525081526020016040518060400160405280600781526020017f66616c6166656c0000000000000000000000000000000000000000000000000081525081526020016040518060400160405280600481526020017f6c65656b0000000000000000000000000000000000000000000000000000000081525081526020016040518060400160405280600781526020017f70756d706b696e0000000000000000000000000000000000000000000000000081525081526020016040518060400160405280600781526020017f736f7566666c650000000000000000000000000000000000000000000000000081525081526020016040518060400160405280600781526020017f6c617361676e650000000000000000000000000000000000000000000000000081525081526020016040518060400160405280600681526020017f70616b6f7261000000000000000000000000000000000000000000000000000081525081526020016040518060400160405280600481526020017f726963650000000000000000000000000000000000000000000000000000000081525081526020016040518060400160405280600481526020017f726167750000000000000000000000000000000000000000000000000000000081525081526020016040518060400160405280600581526020017f627265616400000000000000000000000000000000000000000000000000000081525081526020016040518060400160405280600481526020017f77696e650000000000000000000000000000000000000000000000000000000081525081526020016040518060400160405280600481526020017f666973680000000000000000000000000000000000000000000000000000000081525081526020016040518060400160405280600581526020017f707261776e000000000000000000000000000000000000000000000000000000815250815250600b906014620009af92919062001033565b506040518061024001604052806040518060400160405280600481526020017f63616b650000000000000000000000000000000000000000000000000000000081525081526020016040518060400160405280600581526020017f706172747900000000000000000000000000000000000000000000000000000081525081526020016040518060400160405280600581526020017f666561737400000000000000000000000000000000000000000000000000000081525081526020016040518060400160405280600881526020017f636f6e677265737300000000000000000000000000000000000000000000000081525081526020016040518060400160405280600a81526020017f636f6c6c6563746976650000000000000000000000000000000000000000000081525081526020016040518060400160405280600a81526020017f626c6f636b636861696e0000000000000000000000000000000000000000000081525081526020016040518060400160405280600481526020017f444170700000000000000000000000000000000000000000000000000000000081525081526020016040518060400160405280600781526020017f72756e74696d650000000000000000000000000000000000000000000000000081525081526020016040518060400160405280600881526020017f646973617374657200000000000000000000000000000000000000000000000081525081526020016040518060400160405280600781526020017f6d656574696e670000000000000000000000000000000000000000000000000081525081526020016040518060400160405280600581526020017f747269616c00000000000000000000000000000000000000000000000000000081525081526020016040518060400160405280600881526020017f7374616e646f666600000000000000000000000000000000000000000000000081525081526020016040518060400160405280600a81526020017f636f6d70726f6d6973650000000000000000000000000000000000000000000081525081526020016040518060400160405280600581526020017f626972746800000000000000000000000000000000000000000000000000000081525081526020016040518060400160405280600981526020017f776569676874696e67000000000000000000000000000000000000000000000081525081526020016040518060400160405280600881526020017f736f6c7574696f6e00000000000000000000000000000000000000000000000081525081526020016040518060400160405280600681526020017f64657369676e000000000000000000000000000000000000000000000000000081525081526020016040518060400160405280600981526020017f63617461636c79736d0000000000000000000000000000000000000000000000815250815250600c90601262000df29291906200109a565b5034801562000e0057600080fd5b506040518060400160405280600981526020017f5371756172654e465400000000000000000000000000000000000000000000008152506040518060400160405280600681526020017f5351554152450000000000000000000000000000000000000000000000000000815250816000908051906020019062000e8592919062000fa2565b50806001908051906020019062000e9e92919062000fa2565b50505062000ed060405180606001604052806029815260200162004d3f6029913962000ed660201b620012a91760201c565b620012bb565b62000f768160405160240162000eed9190620011cf565b6040516020818303038152906040527f41304fac000000000000000000000000000000000000000000000000000000007bffffffffffffffffffffffffffffffffffffffffffffffffffffffff19166020820180517bffffffffffffffffffffffffffffffffffffffffffffffffffffffff838183161783525050505062000f7960201b60201c565b50565b60008151905060006a636f6e736f6c652e6c6f679050602083016000808483855afa5050505050565b82805462000fb09062001245565b90600052602060002090601f01602090048101928262000fd4576000855562001020565b82601f1062000fef57805160ff191683800117855562001020565b8280016001018555821562001020579182015b828111156200101f57825182559160200191906001019062001002565b5b5090506200102f919062001101565b5090565b82805482825590600052602060002090810192821562001087579160200282015b82811115620010865782518290805190602001906200107592919062000fa2565b509160200191906001019062001054565b5b50905062001096919062001120565b5090565b828054828255906000526020600020908101928215620010ee579160200282015b82811115620010ed578251829080519060200190620010dc92919062000fa2565b5091602001919060010190620010bb565b5b509050620010fd919062001120565b5090565b5b808211156200111c57600081600090555060010162001102565b5090565b5b808211156200114457600081816200113a919062001148565b5060010162001121565b5090565b508054620011569062001245565b6000825580601f106200116a57506200118b565b601f0160209004906000526020600020908101906200118a919062001101565b5b50565b60006200119b82620011f3565b620011a78185620011fe565b9350620011b98185602086016200120f565b620011c481620012aa565b840191505092915050565b60006020820190508181036000830152620011eb81846200118e565b905092915050565b600081519050919050565b600082825260208201905092915050565b60005b838110156200122f57808201518184015260208101905062001212565b838111156200123f576000848401525b50505050565b600060028204905060018216806200125e57607f821691505b602082108114156200127557620012746200127b565b5b50919050565b7f4e487b7100000000000000000000000000000000000000000000000000000000600052602260045260246000fd5b6000601f19601f8301169050919050565b613a7480620012cb6000396000f3fe608060405234801561001057600080fd5b50600436106101215760003560e01c806370a08231116100ad578063c575757a11610071578063c575757a1461032c578063c87b56dd1461035c578063de9d132f1461038c578063e831574214610396578063e985e9c5146103b457610121565b806370a082311461027657806395d89b41146102a6578063a22cb465146102c4578063b187301f146102e0578063b88d4fde1461031057610121565b80631feadd9d116100f45780631feadd9d146101c057806323b872dd146101de5780632de38d68146101fa57806342842e0e1461022a5780636352211e1461024657610121565b806301ffc9a71461012657806306fdde0314610156578063081812fc14610174578063095ea7b3146101a4575b600080fd5b610140600480360381019061013b9190612556565b6103e4565b60405161014d91906132b7565b60405180910390f35b61015e6104c6565b60405161016b91906132d2565b60405180910390f35b61018e600480360381019061018991906125a8565b610558565b60405161019b9190613227565b60405180910390f35b6101be60048036038101906101b9919061251a565b6105dd565b005b6101c86106f5565b6040516101d59190613532565b60405180910390f35b6101f860048036038101906101f39190612414565b610739565b005b610214600480360381019061020f91906125a8565b610799565b60405161022191906132d2565b60405180910390f35b610244600480360381019061023f9190612414565b6108b7565b005b610260600480360381019061025b91906125a8565b6108d7565b60405161026d9190613227565b60405180910390f35b610290600480360381019061028b91906123af565b610989565b60405161029d919061354d565b60405180910390f35b6102ae610a41565b6040516102bb91906132d2565b60405180910390f35b6102de60048036038101906102d991906124de565b610ad3565b005b6102fa60048036038101906102f591906125a8565b610c54565b60405161030791906132d2565b60405180910390f35b61032a60048036038101906103259190612463565b610d72565b005b610346600480360381019061034191906125a8565b610dd4565b60405161035391906132d2565b60405180910390f35b610376600480360381019061037191906125a8565b610ef2565b60405161038391906132d2565b60405180910390f35b610394611044565b005b61039e61120f565b6040516103ab919061354d565b60405180910390f35b6103ce60048036038101906103c991906123d8565b611215565b6040516103db91906132b7565b60405180910390f35b60007f80ac58cd000000000000000000000000000000000000000000000000000000007bffffffffffffffffffffffffffffffffffffffffffffffffffffffff1916827bffffffffffffffffffffffffffffffffffffffffffffffffffffffff191614806104af57507f5b5e139f000000000000000000000000000000000000000000000000000000007bffffffffffffffffffffffffffffffffffffffffffffffffffffffff1916827bffffffffffffffffffffffffffffffffffffffffffffffffffffffff1916145b806104bf57506104be82611342565b5b9050919050565b6060600080546104d5906137ec565b80601f0160208091040260200160405190810160405280929190818152602001828054610501906137ec565b801561054e5780601f106105235761010080835404028352916020019161054e565b820191906000526020600020905b81548152906001019060200180831161053157829003601f168201915b5050505050905090565b6000610563826113ac565b6105a2576040517f08c379a000000000000000000000000000000000000000000000000000000000815260040161059990613492565b60405180910390fd5b6004600083815260200190815260200160002060009054906101000a900473ffffffffffffffffffffffffffffffffffffffff169050919050565b60006105e8826108d7565b90508073ffffffffffffffffffffffffffffffffffffffff168373ffffffffffffffffffffffffffffffffffffffff161415610659576040517f08c379a0000000000000000000000000000000000000000000000000000000008152600401610650906134f2565b60405180910390fd5b8073ffffffffffffffffffffffffffffffffffffffff16610678611418565b73ffffffffffffffffffffffffffffffffffffffff1614806106a757506106a6816106a1611418565b611215565b5b6106e6576040517f08c379a00000000000000000000000000000000000000000000000000000000081526004016106dd906133d2565b60405180910390fd5b6106f08383611420565b505050565b6106fd612221565b600061070960076114d9565b905060008160085461071b9190613702565b90506040518060400160405280838152602001828152509250505090565b61074a610744611418565b826114e7565b610789576040517f08c379a000000000000000000000000000000000000000000000000000000000815260040161078090613512565b60405180910390fd5b6107948383836115c5565b505050565b606060006107cd6107a984611821565b6040516020016107b991906131e3565b6040516020818303038152906040526119ce565b9050600a80549050816107e09190613867565b9050600a818154811061081c577f4e487b7100000000000000000000000000000000000000000000000000000000600052603260045260246000fd5b906000526020600020018054610831906137ec565b80601f016020809104026020016040519081016040528092919081815260200182805461085d906137ec565b80156108aa5780601f1061087f576101008083540402835291602001916108aa565b820191906000526020600020905b81548152906001019060200180831161088d57829003601f168201915b5050505050915050919050565b6108d283838360405180602001604052806000815250610d72565b505050565b6000806002600084815260200190815260200160002060009054906101000a900473ffffffffffffffffffffffffffffffffffffffff169050600073ffffffffffffffffffffffffffffffffffffffff168173ffffffffffffffffffffffffffffffffffffffff161415610980576040517f08c379a000000000000000000000000000000000000000000000000000000000815260040161097790613412565b60405180910390fd5b80915050919050565b60008073ffffffffffffffffffffffffffffffffffffffff168273ffffffffffffffffffffffffffffffffffffffff1614156109fa576040517f08c379a00000000000000000000000000000000000000000000000000000000081526004016109f1906133f2565b60405180910390fd5b600360008373ffffffffffffffffffffffffffffffffffffffff1673ffffffffffffffffffffffffffffffffffffffff168152602001908152602001600020549050919050565b606060018054610a50906137ec565b80601f0160208091040260200160405190810160405280929190818152602001828054610a7c906137ec565b8015610ac95780601f10610a9e57610100808354040283529160200191610ac9565b820191906000526020600020905b815481529060010190602001808311610aac57829003601f168201915b5050505050905090565b610adb611418565b73ffffffffffffffffffffffffffffffffffffffff168273ffffffffffffffffffffffffffffffffffffffff161415610b49576040517f08c379a0000000000000000000000000000000000000000000000000000000008152600401610b4090613392565b60405180910390fd5b8060056000610b56611418565b73ffffffffffffffffffffffffffffffffffffffff1673ffffffffffffffffffffffffffffffffffffffff16815260200190815260200160002060008473ffffffffffffffffffffffffffffffffffffffff1673ffffffffffffffffffffffffffffffffffffffff16815260200190815260200160002060006101000a81548160ff0219169083151502179055508173ffffffffffffffffffffffffffffffffffffffff16610c03611418565b73ffffffffffffffffffffffffffffffffffffffff167f17307eab39ab6107e8899845ad3d59bd9653f200f220920489ca2b5937696c3183604051610c4891906132b7565b60405180910390a35050565b60606000610c88610c6484611821565b604051602001610c749190613167565b6040516020818303038152906040526119ce565b9050600b8054905081610c9b9190613867565b9050600b8181548110610cd7577f4e487b7100000000000000000000000000000000000000000000000000000000600052603260045260246000fd5b906000526020600020018054610cec906137ec565b80601f0160208091040260200160405190810160405280929190818152602001828054610d18906137ec565b8015610d655780601f10610d3a57610100808354040283529160200191610d65565b820191906000526020600020905b815481529060010190602001808311610d4857829003601f168201915b5050505050915050919050565b610d83610d7d611418565b836114e7565b610dc2576040517f08c379a0000000000000000000000000000000000000000000000000000000008152600401610db990613512565b60405180910390fd5b610dce84848484611a01565b50505050565b60606000610e08610de484611821565b604051602001610df49190613145565b6040516020818303038152906040526119ce565b9050600c8054905081610e1b9190613867565b9050600c8181548110610e57577f4e487b7100000000000000000000000000000000000000000000000000000000600052603260045260246000fd5b906000526020600020018054610e6c906137ec565b80601f0160208091040260200160405190810160405280929190818152602001828054610e98906137ec565b8015610ee55780601f10610eba57610100808354040283529160200191610ee5565b820191906000526020600020905b815481529060010190602001808311610ec857829003601f168201915b5050505050915050919050565b6060610efd826113ac565b610f3c576040517f08c379a0000000000000000000000000000000000000000000000000000000008152600401610f3390613472565b60405180910390fd5b6000600660008481526020019081526020016000208054610f5c906137ec565b80601f0160208091040260200160405190810160405280929190818152602001828054610f88906137ec565b8015610fd55780601f10610faa57610100808354040283529160200191610fd5565b820191906000526020600020905b815481529060010190602001808311610fb857829003601f168201915b505050505090506000610fe6611a5d565b9050600081511415610ffc57819250505061103f565b60008251111561103157808260405160200161101992919061307b565b6040516020818303038152906040529250505061103f565b61103a84611a74565b925050505b919050565b600061105060076114d9565b9050600854811060405160200161106690613189565b604051602081830303815290604052906110b6576040517f08c379a00000000000000000000000000000000000000000000000000000000081526004016110ad91906132d2565b60405180910390fd5b5060006110c282610799565b905060006110cf83610c54565b905060006110dc84610dd4565b905060008383836040516020016110f59392919061309f565b60405160208183030381529060405290506000600985858560405160200161112094939291906130e6565b604051602081830303815290604052905060006111658361114084611b1b565b60405160200161115192919061319e565b604051602081830303815290604052611b1b565b905060008160405160200161117a9190613205565b60405160208183030381529060405290506111953389611cd9565b61119f8882611cf7565b6111a96007611d6b565b6111cc6040518060600160405280603d81526020016139c2603d91398933611d81565b7febb98688741ffa4c7589bf325de30cf7becb63de567842e1ccdb6cb949fdc82c33896040516111fd92919061328e565b60405180910390a15050505050505050565b60085481565b6000600560008473ffffffffffffffffffffffffffffffffffffffff1673ffffffffffffffffffffffffffffffffffffffff16815260200190815260200160002060008373ffffffffffffffffffffffffffffffffffffffff1673ffffffffffffffffffffffffffffffffffffffff16815260200190815260200160002060009054906101000a900460ff16905092915050565b61133f816040516024016112bd91906132d2565b6040516020818303038152906040527f41304fac000000000000000000000000000000000000000000000000000000007bffffffffffffffffffffffffffffffffffffffffffffffffffffffff19166020820180517bffffffffffffffffffffffffffffffffffffffffffffffffffffffff8381831617835250505050611e20565b50565b60007f01ffc9a7000000000000000000000000000000000000000000000000000000007bffffffffffffffffffffffffffffffffffffffffffffffffffffffff1916827bffffffffffffffffffffffffffffffffffffffffffffffffffffffff1916149050919050565b60008073ffffffffffffffffffffffffffffffffffffffff166002600084815260200190815260200160002060009054906101000a900473ffffffffffffffffffffffffffffffffffffffff1673ffffffffffffffffffffffffffffffffffffffff1614159050919050565b600033905090565b816004600083815260200190815260200160002060006101000a81548173ffffffffffffffffffffffffffffffffffffffff021916908373ffffffffffffffffffffffffffffffffffffffff160217905550808273ffffffffffffffffffffffffffffffffffffffff16611493836108d7565b73ffffffffffffffffffffffffffffffffffffffff167f8c5be1e5ebec7d5bd14f71427d1e84f3dd0314c0f7b2291e5b200ac8c7c3b92560405160405180910390a45050565b600081600001549050919050565b60006114f2826113ac565b611531576040517f08c379a0000000000000000000000000000000000000000000000000000000008152600401611528906133b2565b60405180910390fd5b600061153c836108d7565b90508073ffffffffffffffffffffffffffffffffffffffff168473ffffffffffffffffffffffffffffffffffffffff1614806115ab57508373ffffffffffffffffffffffffffffffffffffffff1661159384610558565b73ffffffffffffffffffffffffffffffffffffffff16145b806115bc57506115bb8185611215565b5b91505092915050565b8273ffffffffffffffffffffffffffffffffffffffff166115e5826108d7565b73ffffffffffffffffffffffffffffffffffffffff161461163b576040517f08c379a0000000000000000000000000000000000000000000000000000000008152600401611632906134b2565b60405180910390fd5b600073ffffffffffffffffffffffffffffffffffffffff168273ffffffffffffffffffffffffffffffffffffffff1614156116ab576040517f08c379a00000000000000000000000000000000000000000000000000000000081526004016116a290613372565b60405180910390fd5b6116b6838383611e49565b6116c1600082611420565b6001600360008573ffffffffffffffffffffffffffffffffffffffff1673ffffffffffffffffffffffffffffffffffffffff16815260200190815260200160002060008282546117119190613702565b925050819055506001600360008473ffffffffffffffffffffffffffffffffffffffff1673ffffffffffffffffffffffffffffffffffffffff16815260200190815260200160002060008282546117689190613621565b92505081905550816002600083815260200190815260200160002060006101000a81548173ffffffffffffffffffffffffffffffffffffffff021916908373ffffffffffffffffffffffffffffffffffffffff160217905550808273ffffffffffffffffffffffffffffffffffffffff168473ffffffffffffffffffffffffffffffffffffffff167fddf252ad1be2c89b69c2b068fc378daa952ba7f163c4a11628f55a4df523b3ef60405160405180910390a4505050565b60606000821415611869576040518060400160405280600181526020017f300000000000000000000000000000000000000000000000000000000000000081525090506119c9565b600082905060005b6000821461189b5780806118849061381e565b915050600a826118949190613677565b9150611871565b60008167ffffffffffffffff8111156118dd577f4e487b7100000000000000000000000000000000000000000000000000000000600052604160045260246000fd5b6040519080825280601f01601f19166020018201604052801561190f5781602001600182028036833780820191505090505b5090505b600085146119c2576001826119289190613702565b9150600a856119379190613867565b60306119439190613621565b60f81b81838151811061197f577f4e487b7100000000000000000000000000000000000000000000000000000000600052603260045260246000fd5b60200101907effffffffffffffffffffffffffffffffffffffffffffffffffffffffffffff1916908160001a905350600a856119bb9190613677565b9450611913565b8093505050505b919050565b6000816040516020016119e19190613064565b6040516020818303038152906040528051906020012060001c9050919050565b611a0c8484846115c5565b611a1884848484611e4e565b611a57576040517f08c379a0000000000000000000000000000000000000000000000000000000008152600401611a4e90613332565b60405180910390fd5b50505050565b606060405180602001604052806000815250905090565b6060611a7f826113ac565b611abe576040517f08c379a0000000000000000000000000000000000000000000000000000000008152600401611ab5906134d2565b60405180910390fd5b6000611ac8611a5d565b90506000815111611ae85760405180602001604052806000815250611b13565b80611af284611821565b604051602001611b0392919061307b565b6040516020818303038152906040525b915050919050565b60606000825190506000811415611b445760405180602001604052806000815250915050611cd4565b60006003600283611b559190613621565b611b5f9190613677565b6004611b6b91906136a8565b90506000602082611b7c9190613621565b67ffffffffffffffff811115611bbb577f4e487b7100000000000000000000000000000000000000000000000000000000600052604160045260246000fd5b6040519080825280601f01601f191660200182016040528015611bed5781602001600182028036833780820191505090505b50905060006040518060600160405280604081526020016139ff604091399050600181016020830160005b86811015611c915760038101905062ffffff818a015116603f8160121c168401518060081b905060ff603f83600c1c1686015116810190508060081b905060ff603f8360061c1686015116810190508060081b905060ff603f831686015116810190508060e01b90508084526004840193505050611c18565b506003860660018114611cab5760028114611cbb57611cc6565b613d3d60f01b6002830352611cc6565b603d60f81b60018303525b508484525050819450505050505b919050565b611cf3828260405180602001604052806000815250611fe5565b5050565b611d00826113ac565b611d3f576040517f08c379a0000000000000000000000000000000000000000000000000000000008152600401611d3690613432565b60405180910390fd5b80600660008481526020019081526020016000209080519060200190611d6692919061223b565b505050565b6001816000016000828254019250508190555050565b611e1b838383604051602401611d99939291906132f4565b6040516020818303038152906040527fe3849f79000000000000000000000000000000000000000000000000000000007bffffffffffffffffffffffffffffffffffffffffffffffffffffffff19166020820180517bffffffffffffffffffffffffffffffffffffffffffffffffffffffff8381831617835250505050611e20565b505050565b60008151905060006a636f6e736f6c652e6c6f679050602083016000808483855afa5050505050565b505050565b6000611e6f8473ffffffffffffffffffffffffffffffffffffffff16612040565b15611fd8578373ffffffffffffffffffffffffffffffffffffffff1663150b7a02611e98611418565b8786866040518563ffffffff1660e01b8152600401611eba9493929190613242565b602060405180830381600087803b158015611ed457600080fd5b505af1925050508015611f0557506040513d601f19601f82011682018060405250810190611f02919061257f565b60015b611f88573d8060008114611f35576040519150601f19603f3d011682016040523d82523d6000602084013e611f3a565b606091505b50600081511415611f80576040517f08c379a0000000000000000000000000000000000000000000000000000000008152600401611f7790613332565b60405180910390fd5b805181602001fd5b63150b7a0260e01b7bffffffffffffffffffffffffffffffffffffffffffffffffffffffff1916817bffffffffffffffffffffffffffffffffffffffffffffffffffffffff191614915050611fdd565b600190505b949350505050565b611fef8383612053565b611ffc6000848484611e4e565b61203b576040517f08c379a000000000000000000000000000000000000000000000000000000000815260040161203290613332565b60405180910390fd5b505050565b600080823b905060008111915050919050565b600073ffffffffffffffffffffffffffffffffffffffff168273ffffffffffffffffffffffffffffffffffffffff1614156120c3576040517f08c379a00000000000000000000000000000000000000000000000000000000081526004016120ba90613452565b60405180910390fd5b6120cc816113ac565b1561210c576040517f08c379a000000000000000000000000000000000000000000000000000000000815260040161210390613352565b60405180910390fd5b61211860008383611e49565b6001600360008473ffffffffffffffffffffffffffffffffffffffff1673ffffffffffffffffffffffffffffffffffffffff16815260200190815260200160002060008282546121689190613621565b92505081905550816002600083815260200190815260200160002060006101000a81548173ffffffffffffffffffffffffffffffffffffffff021916908373ffffffffffffffffffffffffffffffffffffffff160217905550808273ffffffffffffffffffffffffffffffffffffffff16600073ffffffffffffffffffffffffffffffffffffffff167fddf252ad1be2c89b69c2b068fc378daa952ba7f163c4a11628f55a4df523b3ef60405160405180910390a45050565b604051806040016040528060008152602001600081525090565b828054612247906137ec565b90600052602060002090601f01602090048101928261226957600085556122b0565b82601f1061228257805160ff19168380011785556122b0565b828001600101855582156122b0579182015b828111156122af578251825591602001919060010190612294565b5b5090506122bd91906122c1565b5090565b5b808211156122da5760008160009055506001016122c2565b5090565b60006122f16122ec84613599565b613568565b90508281526020810184848401111561230957600080fd5b6123148482856137aa565b509392505050565b60008135905061232b81613965565b92915050565b6000813590506123408161397c565b92915050565b60008135905061235581613993565b92915050565b60008151905061236a81613993565b92915050565b600082601f83011261238157600080fd5b81356123918482602086016122de565b91505092915050565b6000813590506123a9816139aa565b92915050565b6000602082840312156123c157600080fd5b60006123cf8482850161231c565b91505092915050565b600080604083850312156123eb57600080fd5b60006123f98582860161231c565b925050602061240a8582860161231c565b9150509250929050565b60008060006060848603121561242957600080fd5b60006124378682870161231c565b93505060206124488682870161231c565b92505060406124598682870161239a565b9150509250925092565b6000806000806080858703121561247957600080fd5b60006124878782880161231c565b94505060206124988782880161231c565b93505060406124a98782880161239a565b925050606085013567ffffffffffffffff8111156124c657600080fd5b6124d287828801612370565b91505092959194509250565b600080604083850312156124f157600080fd5b60006124ff8582860161231c565b925050602061251085828601612331565b9150509250929050565b6000806040838503121561252d57600080fd5b600061253b8582860161231c565b925050602061254c8582860161239a565b9150509250929050565b60006020828403121561256857600080fd5b600061257684828501612346565b91505092915050565b60006020828403121561259157600080fd5b600061259f8482850161235b565b91505092915050565b6000602082840312156125ba57600080fd5b60006125c88482850161239a565b91505092915050565b6125da81613736565b82525050565b6125e981613748565b82525050565b60006125fa826135de565b61260481856135f4565b93506126148185602086016137b9565b61261d81613954565b840191505092915050565b6000612633826135e9565b61263d8185613605565b935061264d8185602086016137b9565b61265681613954565b840191505092915050565b600061266c826135e9565b6126768185613616565b93506126868185602086016137b9565b80840191505092915050565b6000815461269f816137ec565b6126a98186613616565b945060018216600081146126c457600181146126d557612708565b60ff19831686528186019350612708565b6126de856135c9565b60005b83811015612700578154818901526001820191506020810190506126e1565b838801955050505b50505092915050565b600061271e603283613605565b91507f4552433732313a207472616e7366657220746f206e6f6e20455243373231526560008301527f63656976657220696d706c656d656e74657200000000000000000000000000006020830152604082019050919050565b6000612784606e83613616565b91507f222c20226465736372697074696f6e223a2022546865726520776173206f6e6560008301527f20776569726420747269636b20746f20736d617368696e67206f75742074686560208301527f7365204e465453222c2022696d616765223a2022646174613a696d6167652f7360408301527f76672b786d6c3b6261736536342c0000000000000000000000000000000000006060830152606e82019050919050565b6000612836601c83613605565b91507f4552433732313a20746f6b656e20616c7265616479206d696e746564000000006000830152602082019050919050565b6000612876600a83613616565b91507f54484952445f574f5244000000000000000000000000000000000000000000006000830152600a82019050919050565b60006128b6602483613605565b91507f4552433732313a207472616e7366657220746f20746865207a65726f2061646460008301527f72657373000000000000000000000000000000000000000000000000000000006020830152604082019050919050565b600061291c601983613605565b91507f4552433732313a20617070726f766520746f2063616c6c6572000000000000006000830152602082019050919050565b600061295c600b83613616565b91507f5345434f4e445f574f52440000000000000000000000000000000000000000006000830152600b82019050919050565b600061299c602c83613605565b91507f4552433732313a206f70657261746f7220717565727920666f72206e6f6e657860008301527f697374656e7420746f6b656e00000000000000000000000000000000000000006020830152604082019050919050565b6000612a02602e83613616565b91507f4d6178206e756d626572206f6620746f6b656e73206861766520616c7265616460008301527f79206265656e206d696e746564210000000000000000000000000000000000006020830152602e82019050919050565b6000612a68600d83613616565b91507f3c2f746578743e3c2f7376673e000000000000000000000000000000000000006000830152600d82019050919050565b6000612aa8600183613616565b91507f20000000000000000000000000000000000000000000000000000000000000006000830152600182019050919050565b6000612ae8603883613605565b91507f4552433732313a20617070726f76652063616c6c6572206973206e6f74206f7760008301527f6e6572206e6f7220617070726f76656420666f7220616c6c00000000000000006020830152604082019050919050565b6000612b4e602a83613605565b91507f4552433732313a2062616c616e636520717565727920666f7220746865207a6560008301527f726f2061646472657373000000000000000000000000000000000000000000006020830152604082019050919050565b6000612bb4602983613605565b91507f4552433732313a206f776e657220717565727920666f72206e6f6e657869737460008301527f656e7420746f6b656e00000000000000000000000000000000000000000000006020830152604082019050919050565b6000612c1a602e83613605565b91507f45524337323155524953746f726167653a2055524920736574206f66206e6f6e60008301527f6578697374656e7420746f6b656e0000000000000000000000000000000000006020830152604082019050919050565b6000612c80600283613616565b91507f227d0000000000000000000000000000000000000000000000000000000000006000830152600282019050919050565b6000612cc0602083613605565b91507f4552433732313a206d696e7420746f20746865207a65726f20616464726573736000830152602082019050919050565b6000612d00603183613605565b91507f45524337323155524953746f726167653a2055524920717565727920666f722060008301527f6e6f6e6578697374656e7420746f6b656e0000000000000000000000000000006020830152604082019050919050565b6000612d66602c83613605565b91507f4552433732313a20617070726f76656420717565727920666f72206e6f6e657860008301527f697374656e7420746f6b656e00000000000000000000000000000000000000006020830152604082019050919050565b6000612dcc602983613605565b91507f4552433732313a207472616e73666572206f6620746f6b656e2074686174206960008301527f73206e6f74206f776e00000000000000000000000000000000000000000000006020830152604082019050919050565b6000612e32602f83613605565b91507f4552433732314d657461646174613a2055524920717565727920666f72206e6f60008301527f6e6578697374656e7420746f6b656e00000000000000000000000000000000006020830152604082019050919050565b6000612e98600a83613616565b91507f7b226e616d65223a2022000000000000000000000000000000000000000000006000830152600a82019050919050565b6000612ed8602183613605565b91507f4552433732313a20617070726f76616c20746f2063757272656e74206f776e6560008301527f72000000000000000000000000000000000000000000000000000000000000006020830152604082019050919050565b6000612f3e600a83613616565b91507f46495253545f574f5244000000000000000000000000000000000000000000006000830152600a82019050919050565b6000612f7e601d83613616565b91507f646174613a6170706c69636174696f6e2f6a736f6e3b6261736536342c0000006000830152601d82019050919050565b6000612fbe603183613605565b91507f4552433732313a207472616e736665722063616c6c6572206973206e6f74206f60008301527f776e6572206e6f7220617070726f7665640000000000000000000000000000006020830152604082019050919050565b60408201600082015161302d6000850182613046565b5060208201516130406020850182613046565b50505050565b61304f816137a0565b82525050565b61305e816137a0565b82525050565b60006130708284612661565b915081905092915050565b60006130878285612661565b91506130938284612661565b91508190509392505050565b60006130ab8286612661565b91506130b682612a9b565b91506130c28285612661565b91506130cd82612a9b565b91506130d98284612661565b9150819050949350505050565b60006130f28287612692565b91506130fe8286612661565b915061310982612a9b565b91506131158285612661565b915061312082612a9b565b915061312c8284612661565b915061313782612a5b565b915081905095945050505050565b600061315082612869565b915061315c8284612661565b915081905092915050565b60006131728261294f565b915061317e8284612661565b915081905092915050565b6000613194826129f5565b9150819050919050565b60006131a982612e8b565b91506131b58285612661565b91506131c082612777565b91506131cc8284612661565b91506131d782612c73565b91508190509392505050565b60006131ee82612f31565b91506131fa8284612661565b915081905092915050565b600061321082612f71565b915061321c8284612661565b915081905092915050565b600060208201905061323c60008301846125d1565b92915050565b600060808201905061325760008301876125d1565b61326460208301866125d1565b6132716040830185613055565b818103606083015261328381846125ef565b905095945050505050565b60006040820190506132a360008301856125d1565b6132b06020830184613055565b9392505050565b60006020820190506132cc60008301846125e0565b92915050565b600060208201905081810360008301526132ec8184612628565b905092915050565b6000606082019050818103600083015261330e8186612628565b905061331d6020830185613055565b61332a60408301846125d1565b949350505050565b6000602082019050818103600083015261334b81612711565b9050919050565b6000602082019050818103600083015261336b81612829565b9050919050565b6000602082019050818103600083015261338b816128a9565b9050919050565b600060208201905081810360008301526133ab8161290f565b9050919050565b600060208201905081810360008301526133cb8161298f565b9050919050565b600060208201905081810360008301526133eb81612adb565b9050919050565b6000602082019050818103600083015261340b81612b41565b9050919050565b6000602082019050818103600083015261342b81612ba7565b9050919050565b6000602082019050818103600083015261344b81612c0d565b9050919050565b6000602082019050818103600083015261346b81612cb3565b9050919050565b6000602082019050818103600083015261348b81612cf3565b9050919050565b600060208201905081810360008301526134ab81612d59565b9050919050565b600060208201905081810360008301526134cb81612dbf565b9050919050565b600060208201905081810360008301526134eb81612e25565b9050919050565b6000602082019050818103600083015261350b81612ecb565b9050919050565b6000602082019050818103600083015261352b81612fb1565b9050919050565b60006040820190506135476000830184613017565b92915050565b60006020820190506135626000830184613055565b92915050565b6000604051905081810181811067ffffffffffffffff8211171561358f5761358e613925565b5b8060405250919050565b600067ffffffffffffffff8211156135b4576135b3613925565b5b601f19601f8301169050602081019050919050565b60008190508160005260206000209050919050565b600081519050919050565b600081519050919050565b600082825260208201905092915050565b600082825260208201905092915050565b600081905092915050565b600061362c826137a0565b9150613637836137a0565b9250827fffffffffffffffffffffffffffffffffffffffffffffffffffffffffffffffff0382111561366c5761366b613898565b5b828201905092915050565b6000613682826137a0565b915061368d836137a0565b92508261369d5761369c6138c7565b5b828204905092915050565b60006136b3826137a0565b91506136be836137a0565b9250817fffffffffffffffffffffffffffffffffffffffffffffffffffffffffffffffff04831182151516156136f7576136f6613898565b5b828202905092915050565b600061370d826137a0565b9150613718836137a0565b92508282101561372b5761372a613898565b5b828203905092915050565b600061374182613780565b9050919050565b60008115159050919050565b60007fffffffff0000000000000000000000000000000000000000000000000000000082169050919050565b600073ffffffffffffffffffffffffffffffffffffffff82169050919050565b6000819050919050565b82818337600083830152505050565b60005b838110156137d75780820151818401526020810190506137bc565b838111156137e6576000848401525b50505050565b6000600282049050600182168061380457607f821691505b60208210811415613818576138176138f6565b5b50919050565b6000613829826137a0565b91507fffffffffffffffffffffffffffffffffffffffffffffffffffffffffffffffff82141561385c5761385b613898565b5b600182019050919050565b6000613872826137a0565b915061387d836137a0565b92508261388d5761388c6138c7565b5b828206905092915050565b7f4e487b7100000000000000000000000000000000000000000000000000000000600052601160045260246000fd5b7f4e487b7100000000000000000000000000000000000000000000000000000000600052601260045260246000fd5b7f4e487b7100000000000000000000000000000000000000000000000000000000600052602260045260246000fd5b7f4e487b7100000000000000000000000000000000000000000000000000000000600052604160045260246000fd5b6000601f19601f8301169050919050565b61396e81613736565b811461397957600080fd5b50565b61398581613748565b811461399057600080fd5b50565b61399c81613754565b81146139a757600080fd5b50565b6139b3816137a0565b81146139be57600080fd5b5056fe776f6f7020776f6f70207965732069742773207472756520416e204e465420772f20494420257320686173206265656e206d696e74656420746f2025734142434445464748494a4b4c4d4e4f505152535455565758595a6162636465666768696a6b6c6d6e6f707172737475767778797a303132333435363738392b2fa2646970667358221220fdd1186fc8cb6c4f56cf6870903337845cb33e08511dea64a05dae5a3db0bacc64736f6c6343000800003349276d20612070726574747920626967206465616c20696e207468652063727970746f2073706163653c73766720786d6c6e733d27687474703a2f2f7777772e77332e6f72672f323030302f73766727207072657365727665417370656374526174696f3d27784d696e594d696e206d656574272076696577426f783d273020302033353020333530273e3c7374796c653e2e62617365207b2066696c6c3a206461726b677265656e3b20666f6e742d66616d696c793a2073616e732d73657269663b20666f6e742d73697a653a20323470783b20666f6e742d7765696768743a20626f6c643b207d3c2f7374796c653e3c726563742077696474683d273130302527206865696768743d2731303025272066696c6c3d2770696e6b27202f3e3c7465787420783d273530252720793d273530252720636c6173733d27626173652720646f6d696e616e742d626173656c696e653d276d6964646c652720746578742d616e63686f723d276d6964646c65273e",
  "linkReferences": {},
  "deployedLinkReferences": {}
}